:100000000C9434000C9451000C9451000C94510049
:100010000C9451000C9451000C9451000C9451001C
:100020000C9451000C9451000C9451000C9451000C
:100030000C9451000C9451000C9451000C945100FC
:100040000C9451000C9451000C9451000C945100EC
:100050000C9451000C9451000C9451000C945100DC
:100060000C9451000C94510011241FBECFEFD8E026
:10007000DEBFCDBF11E0A0E0B1E0EAE4FDE102C0E7
:1000800005900D92A638B107D9F721E0A6E8B1E0B6
:1000900001C01D92A039B207E1F70E9493080C94A9
:1000A0001E0E0C94000088E48093B800089584E943
:1000B0008093BC0008958091BC0087FFFCCF089519
:1000C0001F93CF93DF93D82FC5E014E8D093BB00E4
:1000D0001093BC000E945B008091B900887F883239
:1000E00011F0CA9599F7DF91CF911F9108951F9351
:1000F000CF93DF93C5E0D4EAD093BC000E945B00AD
:100100008091B900887F883011F0CA95A9F7C5E0C1
:10011000DEE414E8D093BB001093BC000E945B00A7
:100120008091B900887F883111F0CA9599F7DF91E5
:10013000CF911F910895CF93C82F0E9477008C2FE5
:100140000E94600084E98093BC00CF910895CF9312
:10015000C82F84600E949B0082E08A95F1F700C05E
:100160008C2F8B7F0E949B0085E88A95F1F7000019
:10017000CF910895CF93C82FC8608C2F0E949B0009
:100180008C2FCF910C94A700CF93C82F807F0E9413
:10019000BA008C2F8295807FCF910C94BA0081E0B9
:1001A0000E94C4008FE99FE00197F1F700C00000B2
:1001B0000895823050F4603140F460688295880F71
:1001C000880F807C860F0C94C400089580EC0C94FA
:1001D000C400613011F40C94BA00611102C00C9497
:1001E000C40008952FE788E391E0215080409040BB
:1001F000E1F700C0000080E30E94BA0087E293E2CA
:100200000197F1F700C0000080E30E94BA008BE282
:1002100091E00197F1F700C0000080E30E94BA006E
:1002200080E20E94BA0088E20E94C40088E00E9436
:10023000C4000E94CF0086E00E94C4008FE00C94AE
:10024000C400CF93C82F807F81600E94BA008C2F9A
:100250008295807F8160CF910C94BA00803110F438
:100260000C9421010895CF93DF93EC0189918111C2
:1002700003C0DF91CF9108950E9421018CE00E947C
:10028000C400F4CF0F931F93CF93DF938C0168309A
:100290007105B9F4485F842F880F880F880F0E947A
:1002A000C400E801095F1F4F89910E942101C01716
:1002B000D107D1F780E0DF91CF911F910F910C947E
:1002C0002101DF91CF911F910F910895CF93DF937B
:1002D000CDB7DEB72A970FB6F894DEBF0FBECDBFFD
:1002E0004AE0BE016F5F7F4F0E94780BCE010196FE
:1002F0000E9433018CE00E94C4002A960FB6F89445
:10030000DEBF0FBECDBFDF91CF910895CF92DF92B8
:10031000EF92FF920F931F93CF93DF93CDB7DEB78A
:100320002A970FB6F894DEBF0FBECDBF242F8E01E3
:100330000F5F1F4F41E06B017C01C701B6010E94B6
:10034000530BC8010E9433018CE00E94C4002A961E
:100350000FB6F894DEBF0FBECDBFDF91CF911F91D6
:100360000F91FF90EF90DF90CF900895ECE7F0E0D1
:1003700080818064808380818F778083EAE7F0E0EA
:1003800080818068808380818064808380818160B7
:1003900080838081826080838081846080830895EF
:1003A00090917C00907F90937C0090917C00982BA2
:1003B00090937C0080917A00806480937A00809191
:1003C0007A0086FDFCCF80917800909179000895A5
:1003D0008F92AF92BF92CF92DF92EF92FF920F93E4
:1003E0001F93CF93DF93D62EF42E122F90E00E940E
:1003F000D001EC018BB18BB9C033D10520F48BB1A6
:100400008BB980E05AC0CE01C1978436910508F0BF
:1004100061C02BB181E090E0AC0101C0440FDA94DF
:10042000EAF7D22ED42ADBB84BB19C0101C0220FCF
:10043000FA94EAF7F22EF094F422FBB84BB19C0147
:1004400001C0220F1A95EAF7122F109514231BB939
:100450002BB1AC0102C0440F551F0A95E2F78A0187
:10046000009502230BB92BB1AC0102C0440F551FFC
:10047000EA94E2F77A01E094E222EBB82BB1AC0106
:1004800002C0440F551FCA94E2F76A01C094C22209
:10049000CBB82BB1AC0102C0440F551FAA94E2F7B0
:1004A0005A01A094A222ABB82BB101C0880F8A9444
:1004B000EAF7809582238BB981E090E0DF91CF91BC
:1004C0001F910F91FF90EF90DF90CF90BF90AF9072
:1004D0008F900895CE0185599109499708F48FCFDF
:1004E000CE018E5A91098436910508F055C04BB162
:1004F00081E090E09C0101C0220FDA94EAF7D22E4D
:10050000D094D422DBB82BB1AC0101C0440FFA94D3
:10051000EAF7F22EF42AFBB84BB19C0101C0220F7E
:100520001A95EAF7122F109514231BB92BB1AC01C1
:1005300002C0440F551F0A95E2F78A010095022375
:100540000BB92BB1AC0102C0440F551FEA94E2F77E
:100550007A01E094E222EBB82BB1AC0102C0440F67
:10056000551FCA94E2F76A01C094C222CBB82BB1DE
:10057000AC0102C0440F551FAA94E2F75A01A0949F
:10058000A222ABB82BB101C0880F8A94EAF78095FC
:1005900082238BB982E091CFCE018251914049975D
:1005A00008F42DCFCE018B5291408436910508F08E
:1005B00055C04BB181E090E09C0101C0220FDA945C
:1005C000EAF7D22ED094D422DBB84BB19C0101C003
:1005D000220FFA94EAF7F22EF094F422FBB82BB132
:1005E000AC0101C0440F1A95EAF7122F142B1BB966
:1005F0002BB1AC0102C0440F551F0A95E2F78A01E6
:10060000009502230BB92BB1AC0102C0440F551F5A
:10061000EA94E2F77A01E094E222EBB82BB1AC0164
:1006200002C0440F551FCA94E2F76A01C094C22267
:10063000CBB82BB1AC0102C0440F551FAA94E2F70E
:100640005A01A094A222ABB82BB101C0880F8A94A2
:10065000EAF7809582238BB983E02FCFCE018F58A4
:100660009140499708F4CBCECE01885A9140843608
:10067000910508F055C04BB181E090E09C0101C0AC
:10068000220FDA94EAF7D22ED094D422DBB84BB101
:100690009C0101C0220FFA94EAF7F22EF094F422A2
:1006A000FBB84BB19C0101C0220F1A95EAF7122F3B
:1006B000109514231BB92BB1AC0102C0440F551F78
:1006C0000A95E2F78A01022B0BB92BB1AC0102C0EB
:1006D000440F551FEA94E2F77A01E094E222EBB866
:1006E0002BB1AC0102C0440F551FCA94E2F76A0156
:1006F000C094C222CBB82BB1AC0102C0440F551F2D
:10070000AA94E2F75A01A094A222ABB82BB101C07F
:10071000880F8A94EAF7809582238BB984E0CDCE46
:10072000CE018C509240499708F469CECE01855293
:1007300092408436910508F055C04BB181E090E0BD
:100740009C0101C0220FDA94EAF7D22ED094D42271
:10075000DBB84BB19C0101C0220FFA94EAF7F22EEC
:10076000F094F422FBB84BB19C0101C0220F1A9502
:10077000EAF7122F109514231BB92BB1AC0102C05C
:10078000440F551F0A95E2F78A01009502230BB921
:100790002BB1AC0102C0440F551FEA94E2F77A0175
:1007A000E22AEBB82BB1AC0102C0440F551FCA942A
:1007B000E2F76A01C094C222CBB82BB1AC0102C0EF
:1007C000440F551FAA94E2F75A01A094A222ABB895
:1007D0002BB101C0880F8A94EAF7809582238BB9E8
:1007E00085E06BCECE0189589240499708F407CE38
:1007F000CE01825A92408436910508F055C04BB123
:1008000081E090E09C0101C0220FDA94EAF7D22E39
:10081000D094D422DBB84BB19C0101C0220FFA94D2
:10082000EAF7F22EF094F422FBB84BB19C0101C020
:10083000220F1A95EAF7122F109514231BB92BB12A
:10084000AC0102C0440F551F0A95E2F78A010095DA
:1008500002230BB92BB1AC0102C0440F551FEA941F
:10086000E2F77A01E094E222EBB82BB1AC0102C0CE
:10087000440F551FCA94E2F76A01C22ACBB82BB1C4
:10088000AC0102C0440F551FAA94E2F75A01A0948C
:10089000A222ABB82BB101C0880F8A94EAF78095E9
:1008A00082238BB986E009CECE01865093404997CA
:1008B00008F4A5CDCE018F5193408436910508F000
:1008C00055C04BB181E090E09C0101C0220FDA9449
:1008D000EAF7D22ED094D422DBB84BB19C0101C0F0
:1008E000220FFA94EAF7F22EF094F422FBB84BB1FF
:1008F0009C0101C0220F1A95EAF7122F10951423BC
:100900001BB92BB1AC0102C0440F551F0A95E2F789
:100910008A01009502230BB92BB1AC0102C0440F30
:10092000551FEA94E2F77A01E094E222EBB82BB18A
:10093000AC0102C0440F551FCA94E2F76A01C0948B
:10094000C222CBB82BB1AC0102C0440F551FAA94F0
:10095000E2F75A01A22AABB82BB101C0880F8A94E2
:10096000EAF7809582238BB987E0A7CDCE01835823
:100970009340499708F443CDCC59D340C436D105B0
:1009800008F03FCD4BB181E090E09C0101C0220F07
:10099000DA94EAF7D22ED094D422DBB84BB19C0182
:1009A00001C0220FFA94EAF7F22EF094F422FBB879
:1009B0004BB19C0101C0220F1A95EAF7122F109536
:1009C00014231BB92BB1AC0102C0440F551F0A956B
:1009D000E2F78A01009502230BB92BB1AC0102C0EA
:1009E000440F551FEA94E2F77A01E094E222EBB853
:1009F0002BB1AC0102C0440F551FCA94E2F76A0143
:100A0000C094C222CBB82BB1AC0102C0440F551F19
:100A1000AA94E2F75A01A094A222ABB82BB101C06C
:100A2000880F8A94EAF7822B8BB988E046CD4F92E3
:100A30005F926F927F928F929F92AF92BF92CF926E
:100A4000DF92EF92FF920F931F93CF93DF93CDB777
:100A5000DEB762970FB6F894DEBF0FBECDBF162F7C
:100A6000072F8A8B998BBA01550F880B990B0E941F
:100A7000E40920E030EC4FE754E469837A838B8308
:100A80009C8369817A818B819C810E947009412EAF
:100A9000502E6A887988A30192014B015C01C5013F
:100AA000B4010E94750A20E030E048EC52E46B018A
:100AB0007C01C701B6010E94750A6D837E838F8316
:100AC00098876D817E818F8198850E94E20A20E05F
:100AD00030E048EC52E469877A878B879C87698588
:100AE0007A858B859C850E9470096D877E878F87AC
:100AF000988B6D857E858F85988962960FB6F89460
:100B0000DEBF0FBECDBFDF91CF911F910F91FF9040
:100B1000EF90DF90CF90BF90AF909F908F907F909D
:100B20006F905F904F9008952F923F924F925F92F7
:100B30006F927F928F929F92AF92BF92CF92DF92ED
:100B4000EF92FF920F931F93CF93DF93CDB7DEB752
:100B5000C356D1090FB6F894DEBF0FBECDBF562ED7
:100B6000672E782E992E6E962FAF6E976F963FAFA9
:100B70006F97A0964FAFA097A1965FAFA197A2964F
:100B8000EFAEA297A3960FAFA397412EA496AFAE58
:100B9000A4971C2D20918C0130918D0140918E01E4
:100BA00050918F0169837A838B839C8369817A81D9
:100BB0008B819C810E9403099F77609388017093C9
:100BC000890180938A0190938B0184E0882E93E0C1
:100BD000A92E22E0C22EEE24E39400E025E046E0B8
:100BE00067E083E00E94E8011C012AE037ED43E260
:100BF0005CE3609188017091890180918A019091F4
:100C00008B010E94700A87FF08C080918601909135
:100C100087018215930509F47BC05D826E827F8215
:100C200098868D819E81AF81B88580938C01909349
:100C30008D01A0938E01B0938F0130928701209295
:100C400086010E94CF009FEFA0E7B2E09150A04044
:100C5000B040E1F700C00000F1013197E830F10544
:100C600008F05EC2E356F14F0C94FD086E962FAD6E
:100C70006E9729876F968FAD6F978A87A0969FADE5
:100C8000A0979B87A196AFADA197AC8729853A85A0
:100C90004B855C855D866E867F86988A6D857E85B0
:100CA0008F8598890E947009B62ED72EF82E192F9D
:100CB00020E030E040E05FE3698B7A8B8B8B9C8B8C
:100CC00069897A898B899C890E94700A1816D4F5E3
:100CD0000E94CF0081E091E00E94330160E081E05A
:100CE0000E94D90080E191E00E943301BFEF24E32C
:100CF0008CE0B15020408040E1F700C00000AFEF31
:100D0000B4E32CE0A150B0402040E1F700C0000067
:100D1000CD59DF4F0FB6F894DEBF0FBECDBFDF91C8
:100D2000CF911F910F91FF90EF90DF90CF90BF90E8
:100D3000AF909F908F907F906F905F904F903F907B
:100D40002F90089564E080E00E94D90043E050E0D5
:100D5000BD8ADE8AFF8A188F6D897E898F89988D7A
:100D60000E94860169E080E00E94D90082E391E060
:100D70000E94330160E081E00E94D90080E191E0AF
:100D80000E943301BCCFA2969FADA297998FFA8E95
:100D9000A396AFADA397AB8F4C8E298D3A8D4B8D1B
:100DA0005C8D5D8E6E8E7F8E98A26D8D7E8D8F8D0B
:100DB00098A10E947009B62ED72EF82E192F20E088
:100DC00030E040EA50E469A37AA38BA39CA369A115
:100DD0007AA18BA19CA10E94700A18166CF40E9443
:100DE000CF0081E091E00E94330160E081E00E9449
:100DF000D9008DE191E078CF65E080E00E94D900D4
:100E000042E050E0BDA2DEA2FFA218A76DA17EA124
:100E10008FA198A50E94860169E080E00E94D90018
:100E200082E391E00E94330160E081E00E94D900FA
:100E30008DE191E0A5CFA4969FADA49799A7BAA6FE
:100E40001BA7DCA629A53AA54BA55CA55DA66EA6A9
:100E50007FA698AA6DA57EA58FA598A90E94700966
:100E6000B62ED72EF82E192F65E080E00E94D9000B
:100E700041E050E0B9AADAAAFBAA1CAB69A97AA999
:100E80008BA99CA90E94860169E080E00E94D9009C
:100E900082E391E00E94330160E081E00E94D9008A
:100EA00088E291E06DCF64E080E00E94D900EC968A
:100EB0002CAD3DAD4EAD5FADEC975DAA6EAA7FAA9D
:100EC00098AE6DA97EA98FA998AD0E94700943E0E4
:100ED00050E069AF7AAF8BAF9CAF69AD7AAD8BADA7
:100EE0009CAD0E94860169E080E00E94D9008CE4FC
:100EF00091E00E94330160E081E00E94D90084E328
:100F000091E03ECF64E080E00E94D900C458DF4FFA
:100F1000288139814A815B81CC57D0405DAE6EAE6D
:100F20007FAE21969FAE219721966CAD7DAD8EADA3
:100F30009FAD21970E94700943E050E022966FAF69
:100F4000229723967FAF239724968FAF24972596D9
:100F50009FAF259725966CAD7DAD8EAD9FAD259746
:100F60000E94860169E080E00E94D9008CE491E053
:100F70000E94330160E081E00E94D90081E491E0A9
:100F8000FFCE65E080E00E94D900C058DF4F288185
:100F900039814A815B81C058D04026965FAE269742
:100FA00027966FAE279728967FAE289729969FAEF3
:100FB000299729966CAD7DAD8EAD9FAD29970E9486
:100FC000700942E050E02A966FAF2A972B967FAFC8
:100FD0002B972C968FAF2C972D969FAF2D972D96F4
:100FE0006CAD7DAD8EAD9FAD2D970E94860168E002
:100FF00080E00E94D9008CE691E00E94330160E01D
:1010000081E00E94D9008FE491E0BACE65E080E0F3
:101010000E94D900CC57DF4F288139814A815B81FA
:10102000C458D0402E965FAE2E972F966FAE2F9756
:1010300060967FAE609761969FAE619761966CAD4A
:101040007DAD8EAD9FAD61970E94700942E050E08A
:1010500062966FAF629763967FAF639764968FAF28
:10106000649765969FAF659765966CAD7DAD8EADC7
:101070009FAD65970E94860168E080E00E94D900DC
:101080008CE691E00E94330160E081E00E94D9008B
:1010900080E691E075CE65E080E00E94D900C857F7
:1010A000DF4F288139814A815B81C858D0406696DC
:1010B0005FAE669767966FAE679768967FAE6897E4
:1010C00069969FAE699769966CAD7DAD8EAD9FAD0B
:1010D00069970E94700942E050E06A966FAF6A9784
:1010E0006B967FAF6B976C968FAF6C976D969FAF3B
:1010F0006D976D966CAD7DAD8EAD9FAD6D970E9479
:10110000860168E080E00E94D9008DE791E00E94AE
:10111000330160E081E00E94D90081E791E030CEA8
:1011200082E891E02DCE00D000D0CDB7DEB70E948E
:1011300053000E94F2000E94B6018AB18FEF8AB973
:1011400040E4242E50EA352E6EE3462E78E3572EE7
:10115000E1E56E2EFCEE7F2EACE38A2EB3E99B2EEA
:1011600080E090E00E94D001AC0160E070E080EA95
:1011700090E40E9417052F923F921F921F922FE337
:101180002F9320E82F931F921F922FE32F9320E895
:101190002F931F921F922FE32F9320E82F931F92DC
:1011A0001F924F925F926F927F928F929F9224E74D
:1011B0002F932CEB2F9320E6A22E22E0B22E27E3D2
:1011C000C22E2DE3D22E1FE8E12E12ECF12E05E700
:1011D0001FE32BE734E14CE251E469837A838B838C
:1011E0009C8369817A818B819C810E9494050FB6D2
:1011F000F894DEBF0FBECDBFB3CFEE0FFF1F05903B
:10120000F491E02D09945058BB27AA270E941B098E
:101210000C94360A0E94280A38F00E942F0A20F007
:1012200039F49F3F19F426F40C94250A0EF4E09546
:10123000E7FB0C941F0AE92F0E94470A58F3BA17DC
:10124000620773078407950720F079F4A6F50C94DC
:10125000690A0EF4E0950B2EBA2FA02D0B01B901EF
:1012600090010C01CA01A0011124FF27591B99F01C
:10127000593F50F4503E68F11A16F040A22F232F28
:10128000342F4427585FF3CF469537952795A79578
:10129000F0405395C9F77EF41F16BA0B620B730B1F
:1012A000840BBAF09150A1F0FF0FBB1F661F771F90
:1012B000881FC2F70EC0BA0F621F731F841F48F445
:1012C000879577956795B795F7959E3F08F0B0CFCE
:1012D0009395880F08F09927EE0F979587950895B5
:1012E0000E9484090C94360A0E942F0A58F00E942A
:1012F000280A40F029F45F3F29F00C941F0A51118D
:101300000C946A0A0C94250A0E94470A68F39923F0
:10131000B1F3552391F3951B550BBB27AA276217F1
:101320007307840738F09F5F5F4F220F331F441FFE
:10133000AA1FA9F335D00E2E3AF0E0E832D0915032
:101340005040E695001CCAF72BD0FE2F29D0660F1F
:10135000771F881FBB1F261737074807AB07B0E862
:1013600009F0BB0B802DBF01FF2793585F4F3AF068
:101370009E3F510578F00C941F0A0C946A0A5F3F57
:10138000E4F3983ED4F3869577956795B795F795EE
:101390009F5FC9F7880F911D9695879597F90895D6
:1013A000E1E0660F771F881FBB1F62177307840772
:1013B000BA0720F0621B730B840BBA0BEE1F88F781
:1013C000E0950895E89409C097FB3EF490958095C8
:1013D000709561957F4F8F4F9F4F9923A9F0F92FFB
:1013E00096E9BB279395F695879577956795B79579
:1013F000F111F8CFFAF4BB0F11F460FF1BC06F5F5F
:101400007F4F8F4F9F4F16C0882311F096E911C070
:10141000772321F09EE8872F762F05C0662371F091
:1014200096E8862F70E060E02AF09A95660F771FA5
:10143000881FDAF7880F9695879597F9089597F999
:101440009F6780E870E060E008959FEF80EC08956A
:1014500000240A9416161706180609060895002493
:101460000A9412161306140605060895092E03940D
:10147000000C11F4882352F0BB0F40F4BF2B11F481
:1014800060FF04C06F5F7F4F8F4F9F4F089557FDE0
:101490009058440F551F59F05F3F71F04795880FE2
:1014A00097FB991F61F09F3F79F087950895121679
:1014B00013061406551FF2CF4695F1DF08C0161625
:1014C00017061806991FF1CF8695710561050894D6
:1014D0000895E894BB2766277727CB0197F90895ED
:1014E0000E94060B08F48FEF08950E94880A0C945E
:1014F000360A0E94280A38F00E942F0A20F095230D
:1015000011F00C941F0A0C94250A11240C946A0AF9
:101510000E94470A70F3959FC1F3950F50E0551F45
:10152000629FF001729FBB27F00DB11D639FAA2738
:10153000F00DB11DAA1F649F6627B00DA11D661F87
:10154000829F2227B00DA11D621F739FB00DA11DA8
:10155000621F839FA00D611D221F749F3327A00D62
:10156000611D231F849F600D211D822F762F6A2FFE
:1015700011249F5750409AF0F1F088234AF0EE0F63
:10158000FF1FBB1F661F771F881F91505040A9F790
:101590009E3F510580F00C941F0A0C946A0A5F3F2D
:1015A000E4F3983ED4F3869577956795B795F795CC
:1015B000E7959F5FC1F7FE2B880F911D9695879544
:1015C00097F908950E944F0AE8F09E37E8F096399F
:1015D000B8F49E3848F4672F782F8827985FF9CFA2
:1015E00086957795679593959539D0F3B62FB17019
:1015F0006B0F711D811D20F48795779567959395E5
:101600000C942A0B0C94450B0C946A0A990F000851
:10161000550FAA0BE0E8FEEF16161706E807F907C4
:10162000C0F012161306E407F50798F0621B730B5F
:10163000840B950B39F40A2661F0232B242B252BE0
:1016400021F408950A2609F4A140A6958FEF811D83
:10165000811D0895882371F4772321F09850872BFA
:10166000762F07C0662311F499270DC09051862B61
:1016700070E060E02AF09A95660F771F881FDAF70E
:10168000880F9695879597F908959F3F31F091506F
:1016900020F4879577956795B795880F911D969556
:1016A000879597F908958F929F92AF92BF92EF928C
:1016B0000F931F93CF93322FC02F54E147FF54E075
:1016C000242F27FD2195E52E032F4C2F512F4B0161
:1016D0005C01C501B4010E949D0B8C2F912FCF910D
:1016E0001F910F91EF90BF90AF909F908F900895B2
:1016F000BB274A3031F4992322F4BDE290958195BD
:101700009F4F0C94840BBB27FB015527AA27880FFA
:10171000991FAA1FA41710F0A41B83955051B9F765
:10172000A05DAA3308F0A95DA193009779F7B111E4
:10173000B1931192CB010C94D70DA0E1B0E0E3EA94
:10174000FBE00C94E70D6A01122FF02E202F3CE3F2
:10175000031708F02BE32F5F288B022F27E0AE0141
:101760004F5F5F4F6C877D878E879F876C857D85F8
:101770008E859F850E94FF0C5C019981892F89705D
:10178000813039F0E0FA882785F9E1FE03C08BE269
:1017900001C08DE2292F2870BE2DB07193FF44C087
:1017A00094E0811101C093E09117C8F4191BB115A1
:1017B00019F1811519F0F60181936F01C6010396A5
:1017C00031E62EE6E2FE02C031E42EE4F60120838B
:1017D00031832283212F382F492F50E219C010E086
:1017E000E6CFF90141932F0191509F019111F9CF5B
:1017F000C10ED11C10E0DDCF912F960140E2F6CF53
:10180000632E742EF30151933F0121503E2F472D3B
:101810002111F6CF810F911DFC0110828EEF9FEFF9
:101820006096E2E10C94030EA92FA47092FF3EC0D3
:1018300094E0811101C093E0911710F4212F291B2E
:10184000B11529F1811519F0F60181936F01C601D7
:10185000039659E64EE636E6E2FE03C059E44EE44E
:1018600036E4F601508341833283322FAC0160E2CB
:1018700018C0832E942EF40151934F0191503E2FA6
:10188000492D9111F6CFC20ED11C20E0DBCF922F53
:101890003C2D4D2D50E2F5CFFA0161931F013150DF
:1018A000AF013111F9CF820F911DB6CF9501B7FE6F
:1018B00002C020E030E061E070E0811102C060E031
:1018C00070E0A9014F5F5F4F460F571F6F2D70E00B
:1018D000FB013196F11002C0E0E0F0E04E0F5F1F17
:1018E0004117510514F4A12FA41B4E2D487141112D
:1018F00055C0F6014A2F50E241114DC0CA0ED11C0D
:10190000A0E0811531F0F6018193A42F6F01B11190
:1019100008C0F6018A2F40E3811145C0CA0ED11CD0
:10192000A0E088898A0D5A81B92FB07194FF03C055
:10193000513309F481501816CCF5893008F088E04D
:10194000FE013196EA0DFB1D4F01821A930A7501C3
:10195000E81AF1087195619571091EE2A216B306A5
:101960003CF1E216F30624F5F401418121503109DE
:10197000C6010196FFEF8F1A9F0A26173707D4F08A
:10198000F60140832F3F320721F4C6010296F6018B
:1019900011836C01E3CF51934150AECF811509F40F
:1019A000B6CF4A2FB0CF41938150B6CF81E0C8CF98
:1019B00040E3DCCFA216B30631F4563398F4553326
:1019C00011F4B11579F0F60140832A2F382F492FF1
:1019D00050E2211109C08A0F911DFC01108280E0A4
:1019E00090E01ECF41E3EFCF3A874B87EA85FB8536
:1019F0005193FB87EA8721503A854B85EACF2830FF
:101A000008F027E03327DA01990F311D87FD916037
:101A100000966105710539F432602E5F3D9330E325
:101A20002A95E1F708959F3F30F0803871056105F0
:101A300009F03C5F3C5F3D93913008F08068911D58
:101A4000DF93CF931F930F93FF92EF92192F987FFD
:101A50009695E92F96959695E90FFF27E656F34E52
:101A600099273327EE24FF24A701E7010590089466
:101A7000079428F4360FE71EF81E491F511D660F04
:101A8000771F881F991F0694A1F70590079428F4E3
:101A9000E70EF81E491F561FC11D770F881F991F9B
:101AA000661F0694A1F70590079428F4F80E491FC5
:101AB000561FC71FD11D880F991F661F771F0694D9
:101AC000A1F70590079420F4490F561FC71FD81F90
:101AD000990F661F771F881F0694A9F784911095A8
:101AE000177041F0D695C79557954795F794E794A9
:101AF0001A95C1F7E0E4FCE16894159015913591D1
:101B00006591959105907FE27395E118F10A430B79
:101B1000560BC90BD009C0F7E10CF11E431F561F2D
:101B2000C91FD01D7EF4703311F48A95E6CFE89476
:101B3000015030F0080F0AF40027021708F4202F94
:101B40002395022F7A3328F079E37D932A95E9F7DC
:101B500010C07D932A9589F60694979567953795D9
:101B600017951794E118F10A430B560BC90BD009CE
:101B700098F023957E9173957A3308F070E37C9307
:101B80002013B8F77E9170617D9330F0839571E3F7
:101B90007D9370E32A95E1F71124EF90FF900F9168
:101BA0001F91CF91DF91992787FD90950895DC01D2
:101BB000FC01672F71917723E1F7329704C07C9184
:101BC0006D9370836291AE17BF07C8F308952F928B
:101BD0003F924F925F926F927F928F929F92AF92BD
:101BE000BF92CF92DF92EF92FF920F931F93CF930A
:101BF000DF93CDB7DEB7CA1BDB0B0FB6F894DEBFA1
:101C00000FBECDBF09942A88398848885F846E84C6
:101C10007D848C849B84AA84B984C884DF80EE8010
:101C2000FD800C811B81AA81B981CE0FD11D0FB619
:101C3000F894DEBF0FBECDBFED010895F894FFCF3D
:101C400000407A10F35A00A0724E18090010A5D473
:101C5000E80000E87648170000E40B54020000CAD0
:101C60009A3B000000E1F505000080969800000016
:101C700040420F000000A086010000001027000075
:101C80000000E803000000006400000000000A00FB
:101C9000000000000100000000002C76D888DC67FE
:101CA0004F0823DFC1DFAE59E1B1B796E5E3E45356
:101CB000C63AE651997696E8E6C28426EB898C9B73
:101CC00062ED407C6FFCEFBC9C9F40F2BAA56FA513
:101CD000F490055A2AF75C936B6CF9676DC11BFC95
:101CE000E0E40D47FEF520E6B500D0ED902E0300B0
:101CF000943577050080841E080000204E0A0000FD
:101D000000C80C333333330F986E12831141EF8DBB
:101D10002114893BE65516CFFEE6DB18D1844B38FB
:101D20001BF77C1D901DA4BBE424203284725E222C
:101D30008100C9F124ECA1E53D273606C3061B0747
:0A1D400053078207C10706084B088D
:101D4A0005496E6372656173652052616E6765004D
:101D5A0052616E676520302D302E35560052616E05
:101D6A00676520302D35560052616E676520302D2B
:101D7A003230560052616E676520302D32306D4127
:101D8A000052616E676520302D3230306D4100524D
:101D9A00616E676520302E312D31306B6F686D00B2
:101DAA0052616E67652031302D3130306B6F686D4E
:101DBA000052616E6765302E312D302E354D6F68B9
:061DCA006D004F6666008B
:00000001FF
